:100000000C9476000C948F000C948F000C948F004D
:100010000C948F000C948F000C948F000C948F0024
:100020000C948F000C948F000C948F000C948F0014
:100030000C948F000C948F000C948F000C948F0004
:100040000C948F000C948F000C948F000C948F00F4
:100050000C948F000C948F000C948F000C948F00E4
:100060000C948F000C948F000C948F000C948F00D4
:100070000C948F000C948F000C948F000C948F00C4
:100080000C948F000C948F000C948F000C948F00B4
:100090000C948F000C948F000C948F000C948F00A4
:1000A0000C948F000C948F000C948F000C948F0094
:1000B0000C948F000C948F000C948F000C948F0084
:1000C0000C948F000C948F000C948F000C948F0074
:1000D0000C948F000C948F000C948F000C948F0064
:1000E0000C948F000C9432080C944C2411241FBEE5
:1000F000CFEFD1E2DEBFCDBF00E00CBF12E0A0E049
:10010000B2E0E6E7F9E400E00BBF02C007900D9211
:10011000A032B107D9F70E9446240C94B9240C945C
:1001200000002F923F925F926F927F928F929F92E8
:10013000AF92BF92CF92DF92EF92FF920F931F93F5
:10014000CF93DF93CDB7DEB7CE5CD2400FB6F89435
:10015000DEBF0FBECDBFC353DD4F99838883CD5C17
:10016000D2406B014A015E0181E4A80EB11C80E21D
:10017000582ED501E52D1D92EA95E9F7F501B096C7
:10018000DF01852D1D928A95E9F78E010F551D4FD0
:10019000D801E52D1D92EA95E9F77E01FFE7EF1AF8
:1001A000FDEFFF0AD701E52D1D92EA95E9F7CE0193
:1001B0008F599D4FC953DD4F99838883C75CD240C7
:1001C000DC01E52D1D92EA95E9F78097CF53DD4FCD
:1001D00099838883C15CD240DC01E52D1D92EA95AC
:1001E000E9F78097CB53DD4F99838883C55CD24074
:1001F000DC01E52D1D92EA95E9F78097CD53DD4F9F
:1002000099838883C35CD240DC01E52D1D92EA9579
:10021000E9F73E01FFE16F1AFEEF7F0AD301E52DFA
:100220001D92EA95E9F71E01FFE32F1AFEEF3F0A40
:10023000D101E52D1D92EA95E9F780569109C55344
:10024000DD4F99838883CB5CD240DC01E52D1D9284
:10025000EA95E9F78097C753DD4F99838883C95C96
:10026000D240DC01E52D1D92EA95E9F7FE01EF5938
:10027000FE4F81E081938FE1DF011D928A95E9F7BE
:10028000405E5F4FCE0101960E947B0BBE016F5F07
:100290007F4FC8010E945609B0E2CB0ED11CA601C7
:1002A000B401CE0101960E947B0BBE016F5F7F4FB0
:1002B000C7010E945609A701B801CE018F599D4F71
:1002C0000E946308A701B801CE0101960E947B0B32
:1002D000BE016F5F7F4FCE018F5B9D4F0E9456091D
:1002E000F801852D11928A95E9F7D7011D925A944C
:1002F000E9F7A601B601CE0101960E947B0BBE0173
:100300006F5F7F4FC8010E945609A401B401CE015E
:1003100001960E947B0BBE016F5F7F4FC7010E9459
:100320005609A701B801CE018F5D9D4F0E94630859
:10033000AE014F5B5D4F60E072E0CE0101960E941E
:100340007B0BBE016F5F7F4FCE018F5F9D4F0E9481
:100350005609AE014F5F5D4FBE016F597E4FC3011D
:100360000E946308AE014F5F5D4FBE016F597E4F23
:10037000C1010E94880AB301CE0101960E94841A2D
:10038000BE016F5F7F4FCE018F5B9E4F0E9456096B
:10039000BE016F5B7E4FCE0101960E94841ABE01A2
:1003A0006F5F7F4FCE018F579F4F0E945609BE014E
:1003B0006F577F4FCE0101960E94841ABE016F5F76
:1003C0007F4FCE018F559F4F0E945609A301BE015A
:1003D0006F557F4FCE0101960E947B0BBE016F5F70
:1003E0007F4FCE018F5F9E4F0E945609AE014F5B3B
:1003F0005E4FBE016F5F7E4FCE0101960E947B0B68
:10040000BE016F5F7F4FCE018F5D9E4F0E945609E8
:10041000BE016F5D7E4FCE0101960E94841ABE011F
:100420006F5F7F4FCE018F559F4F0E945609AE01DF
:100430004F5F5E4FBE016F557F4FCE0101960E9408
:100440007B0BBE016F5F7F4FCE018F5F9E4F0E947F
:100450005609BE016F5F7E4FCE0101960E94841A3D
:10046000BE016F5F7F4FCE018F559F4F0E9456098F
:10047000BE016F557F4FCE0101960E94841ABE01C6
:100480006F5F7F4FCE018F579F4F0E945609BE016D
:100490006F577F4FCE0101960E94841ABE016F5F95
:1004A0007F4FCE018F559F4F0E945609BE016F5559
:1004B0007F4FCE0101960E94841ABE016F5F7F4F6D
:1004C000CE018F579F4F0E945609BE016F577F4F35
:1004D000CE0101960E94841ABE016F5F7F4FCE014C
:1004E0008F559F4F0E945609AE014F5F5E4FBE0170
:1004F0006F557F4FCE0101960E947B0BBE016F5F4F
:100500007F4FCE018F5F9E4F0E945609BE016F5FE5
:100510007E4FCE0101960E94841ABE016F5F7F4F0D
:10052000CE018F559F4F0E945609BE016F557F4FD8
:10053000CE0101960E94841ABE016F5F7F4FCE01EB
:100540008F579F4F0E94560914E0BE016F577F4F8F
:10055000CE0101960E94841ABE016F5F7F4FCE01CB
:100560008F559F4F0E945609BE016F557F4FCE0198
:1005700001960E94841ABE016F5F7F4FCE018F5794
:100580009F4F0E945609115001F7AE014F5F5E4F19
:10059000BE016F577F4FCE0101960E947B0BBE01BB
:1005A0006F5F7F4FCE018F519F4F0E945609BE0152
:1005B0006F517F4FCE0101960E94841ABE016F5F7A
:1005C0007F4FCE018F559F4F0E945609BE016F5538
:1005D0007F4FCE0101960E94841ABE016F5F7F4F4C
:1005E000CE018F579F4F0E94560919E0BE016F57E9
:1005F0007F4FCE0101960E94841ABE016F5F7F4F2C
:10060000CE018F559F4F0E945609BE016F557F4FF7
:10061000CE0101960E94841ABE016F5F7F4FCE010A
:100620008F579F4F0E945609115001F7AE014F514D
:100630005F4FBE016F577F4FCE0101960E947B0B2B
:10064000BE016F5F7F4FCE018F559F4F0E945609AD
:10065000BE016F557F4FCE0101960E94841ABE01E4
:100660006F5F7F4FCE018F579F4F0E945609BE018B
:100670006F577F4FCE0101960E94841ABE016F5FB3
:100680007F4FCE018F559F4F0E94560914E0BE0147
:100690006F557F4FCE0101960E94841ABE016F5F95
:1006A0007F4FCE018F579F4F0E945609BE016F5753
:1006B0007F4FCE0101960E94841ABE016F5F7F4F6B
:1006C000CE018F559F4F0E945609115001F7AE0180
:1006D0004F5F5E4FBE016F557F4FCE0101960E9466
:1006E0007B0BBE016F5F7F4FCE018F519F4F0E94EA
:1006F0005609BE016F517F4FCE0101960E94841AA8
:10070000BE016F5F7F4FCE018F559F4F0E945609EC
:10071000BE016F557F4FCE0101960E94841ABE0123
:100720006F5F7F4FCE018F579F4F0E94560918E190
:10073000BE016F577F4FCE0101960E94841ABE0101
:100740006F5F7F4FCE018F559F4F0E945609BE01AC
:100750006F557F4FCE0101960E94841ABE016F5FD4
:100760007F4FCE018F579F4F0E945609115001F7BE
:10077000AE014F515F4FBE016F577F4FCE010196C3
:100780000E947B0BBE016F5F7F4FCE018F539F4F47
:100790000E945609BE016F537F4FCE0101960E9401
:1007A000841ABE016F5F7F4FCE018F579F4F0E940B
:1007B0005609BE016F577F4FCE0101960E94841AE1
:1007C000BE016F5F7F4FCE018F559F4F0E9456092C
:1007D00011E3BE016F557F4FCE0101960E94841A2E
:1007E000BE016F5F7F4FCE018F579F4F0E9456090A
:1007F000BE016F577F4FCE0101960E94841ABE0141
:100800006F5F7F4FCE018F559F4F0E945609115049
:1008100001F7AE014F535F4FBE016F557F4FCE01C1
:1008200001960E947B0BBE016F5F7F4FCE018F57F9
:100830009F4F0E945609BE016F577F4FCE01019610
:100840000E94841ABE016F5F7F4FCE018F559F4F6C
:100850000E945609BE016F557F4FCE0101960E943E
:10086000841ABE016F5F7F4FCE018F579F4F0E944A
:10087000560918E1BE016F577F4FCE0101960E94C5
:10088000841ABE016F5F7F4FCE018F559F4F0E942C
:100890005609BE016F557F4FCE0101960E94841A02
:1008A000BE016F5F7F4FCE018F579F4F0E94560949
:1008B000115001F7AE014F515F4FBE016F577F4F8F
:1008C000CE0101960E947B0BBE016F5F7F4FCE0170
:1008D0008F559F4F0E945609BE016F557F4FCE0125
:1008E00001960E94841ABE016F5F7F4FCE018F5721
:1008F0009F4F0E945609BE016F577F4FCE01019650
:100900000E94841ABE016F5F7F4FCE018F559F4FAB
:100910000E945609BE016F557F4FCE0101960E947D
:10092000841ABE016F5F7F4FCE018F579F4F0E9489
:100930005609BE016F577F4FCE0101960E94841A5F
:10094000BE016F5F7F4FCE018F559F4F0E945609AA
:10095000BE016F557F4FCE0101960E94841ABE01E1
:100960006F5F7F4FCE018F579F4F0E945609AE0198
:100970004F5D5E4FBE016F577F4FCE0101960E94C3
:100980007B0BBE016F5F7F4FCE018F559E4F0E9444
:100990005609B101CE0101960E94841ABE016F5F13
:1009A0007F4FCE018F5B9E4F0E945609BE016F5B49
:1009B0007E4FCE0101960E94841ABE016F5F7F4F69
:1009C000CE018F579F4F0E945609BE016F577F4F30
:1009D000CE0101960E94841ABE016F5F7F4FCE0147
:1009E0008F559F4F0E945609A101BE016F557F4F41
:1009F000CE0101960E947B0BBE016F5F7F4FCE013F
:100A00008F5F9E4F0E945609AE014F5B5E4FBE0145
:100A10006F5F7E4FCE0101960E947B0BBE016F5F20
:100A20007F4FCE018F5D9E4F0E945609BE016F5DC4
:100A30007E4FCE0101960E94841ABE016F5F7F4FE8
:100A4000CE018F559F4F0E945609AE014F5F5E4FFA
:100A5000BE016F557F4FCE0101960E947B0BBE01F8
:100A60006F5F7F4FCE018F5F9E4F0E945609BE0180
:100A70006F5F7E4FCE0101960E94841ABE016F5FA8
:100A80007F4FCE018F559F4F0E945609BE016F5573
:100A90007F4FCE0101960E94841ABE016F5F7F4F87
:100AA000CE018F579F4F0E945609BE016F577F4F4F
:100AB000CE0101960E94841ABE016F5F7F4FCE0166
:100AC0008F559F4F0E945609BE016F557F4FCE0133
:100AD00001960E94841ABE016F5F7F4FCE018F572F
:100AE0009F4F0E945609BE016F577F4FCE0101965E
:100AF0000E94841ABE016F5F7F4FCE018F559F4FBA
:100B00000E945609AE014F5F5E4FBE016F557F4F89
:100B1000CE0101960E947B0BBE016F5F7F4FCE011D
:100B20008F5F9E4F0E945609BE016F5F7E4FCE01C0
:100B300001960E94841ABE016F5F7F4FCE018F55D0
:100B40009F4F0E945609BE016F557F4FCE010196FF
:100B50000E94841ABE016F5F7F4FCE018F579F4F57
:100B60000E94560914E0BE016F577F4FCE010196D7
:100B70000E94841ABE016F5F7F4FCE018F559F4F39
:100B80000E945609BE016F557F4FCE0101960E940B
:100B9000841ABE016F5F7F4FCE018F579F4F0E9417
:100BA0005609115001F7AE014F5F5E4FBE016F57FE
:100BB0007F4FCE0101960E947B0BBE016F5F7F4F7E
:100BC000CE018F519F4F0E945609BE016F517F4F3A
:100BD000CE0101960E94841ABE016F5F7F4FCE0145
:100BE0008F559F4F0E945609BE016F557F4FCE0112
:100BF00001960E94841ABE016F5F7F4FCE018F570E
:100C00009F4F0E94560919E0BE016F577F4FCE01DA
:100C100001960E94841ABE016F5F7F4FCE018F55EF
:100C20009F4F0E945609BE016F557F4FCE0101961E
:100C30000E94841ABE016F5F7F4FCE018F579F4F76
:100C40000E945609115001F7AE014F515F4FBE018E
:100C50006F577F4FCE0101960E947B0BBE016F5FE5
:100C60007F4FCE018F559F4F0E945609BE016F5591
:100C70007F4FCE0101960E94841ABE016F5F7F4FA5
:100C8000CE018F579F4F0E945609BE016F577F4F6D
:100C9000CE0101960E94841ABE016F5F7F4FCE0184
:100CA0008F559F4F0E94560914E0BE016F557F4F2C
:100CB000CE0101960E94841ABE016F5F7F4FCE0164
:100CC0008F579F4F0E945609BE016F577F4FCE012D
:100CD00001960E94841ABE016F5F7F4FCE018F552F
:100CE0009F4F0E945609115001F7AE014F5F5E4FB2
:100CF000BE016F557F4FCE0101960E947B0BBE0156
:100D00006F5F7F4FCE018F519F4F0E945609BE01EA
:100D10006F517F4FCE0101960E94841ABE016F5F12
:100D20007F4FCE018F559F4F0E945609BE016F55D0
:100D30007F4FCE0101960E94841ABE016F5F7F4FE4
:100D4000CE018F579F4F0E94560918E1BE016F5781
:100D50007F4FCE0101960E94841ABE016F5F7F4FC4
:100D6000CE018F559F4F0E945609BE016F557F4F90
:100D7000CE0101960E94841ABE016F5F7F4FCE01A3
:100D80008F579F4F0E945609115001F7AE014F51E6
:100D90005F4FBE016F577F4FCE0101960E947B0BC4
:100DA000BE016F5F7F4FCE018F539F4F0E94560948
:100DB000BE016F537F4FCE0101960E94841ABE017F
:100DC0006F5F7F4FCE018F579F4F0E945609BE0124
:100DD0006F577F4FCE0101960E94841ABE016F5F4C
:100DE0007F4FCE018F559F4F0E94560911E3BE01E0
:100DF0006F557F4FCE0101960E94841ABE016F5F2E
:100E00007F4FCE018F579F4F0E945609BE016F57EB
:100E10007F4FCE0101960E94841ABE016F5F7F4F03
:100E2000CE018F559F4F0E945609115001F7AE0118
:100E30004F535F4FBE016F557F4FCE0101960E9409
:100E40007B0BBE016F5F7F4FCE018F579F4F0E947C
:100E50005609BE016F577F4FCE0101960E94841A3A
:100E6000BE016F5F7F4FCE018F559F4F0E94560985
:100E7000BE016F557F4FCE0101960E94841ABE01BC
:100E80006F5F7F4FCE018F579F4F0E94560918E129
:100E9000BE016F577F4FCE0101960E94841ABE019A
:100EA0006F5F7F4FCE018F559F4F0E945609BE0145
:100EB0006F557F4FCE0101960E94841ABE016F5F6D
:100EC0007F4FCE018F579F4F0E945609115001F757
:100ED000AE014F515F4FBE016F577F4FCE0101965C
:100EE0000E947B0BBE016F5F7F4FCE018F559F4FDE
:100EF0000E945609BE016F557F4FCE0101960E9498
:100F0000841ABE016F5F7F4FCE018F579F4F0E94A3
:100F10005609BE016F577F4FCE0101960E94841A79
:100F2000BE016F5F7F4FCE018F559F4F0E945609C4
:100F3000BE016F557F4FCE0101960E94841ABE01FB
:100F40006F5F7F4FCE018F579F4F0E945609BE01A2
:100F50006F577F4FCE0101960E94841ABE016F5FCA
:100F60007F4FCE018F559F4F0E945609BE016F558E
:100F70007F4FCE0101960E94841ABE016F5F7F4FA2
:100F8000CE018F579F4F0E945609AE014F5D5E4FB5
:100F9000BE016F577F4FCE0101960E947B0BBE01B1
:100FA0006F5F7F4FCE018F579E4F0E945609AE0153
:100FB0004F555E4FBE016F597D4FCE0101960E9485
:100FC0007B0BBE016F5F7F4FC5010E945609AE01CA
:100FD0004F575E4FBE016F5D7D4FCE0101960E945F
:100FE0007B0B8501005E1F4FBE016F5F7F4FC80105
:100FF0000E94560980E2F501C353DD4FA881B981F3
:10100000CD5CD24001900D928A95E1F7C353DD4F3C
:10101000A881B981CD5CD240909680E2F801019020
:101020000D928A95E1F7C253DD4F0FB6F894DEBFFB
:101030000FBECDBFDF91CF911F910F91FF90EF9029
:10104000DF90CF90BF90AF909F908F907F906F90E8
:101050005F903F902F900895A0E0B0E0E2E3F8E0C9
:101060000C948A247B015A012FEF2EB98C016C015C
:1010700020E2C20ED11CC8E0D0E002C02097C1F02F
:10108000A501B501C5010E9491002197F801808159
:1010900090E00C2E02C0959587950A94E2F780FFA8
:1010A000EDCFA701B501C5010E949100209741F73E
:1010B0000F5F1F4F0C151D05F1F61EB8CDB7DEB73B
:1010C000EAE00C94A624DB01FC01CE01EA0136E241
:1010D0004D915991450F41934D915991451F419320
:1010E0004D915991451F41934D915991451F419300
:1010F0004D915991451F41934D915991451F4193F0
:101100004D915991451F41934D915991451F4193DF
:101110004D915991451F41934D915991451F4193CF
:101120004D915991451F41934D915991451F4193BF
:101130004D915991451F41934D915991451F4193AF
:101140004D915991451F41934D915991451F41939F
:101150004D915991451F41934D915991451F41938F
:101160004D915991451F41934D915991451F41937F
:101170004D915991451F41934D915991451F41936F
:101180004D915991451F41934D915991451F41935F
:101190004D915991451F41934D915991451F41934F
:1011A0004D915991451F41934D915991451F41933F
:1011B0004D915991451F41934D915991451F41932F
:1011C0004D915991451F41934D915991451F41931F
:1011D0005527551FB0974081539F400D4193552788
:1011E0004081451F41934081451F41934081451FE8
:1011F00041934081451F41934081451F4193408168
:10120000451F41934081451F41934081451F4193B4
:101210004081451F41934081451F41934081451FB7
:1012200041934081451F41934081451F4193408137
:10123000451F41934081451F41934081451F419384
:101240004081451F41934081451F41934081451F87
:1012500041934081451F41934081451F4193408107
:10126000451F41934081451F41934081451F419354
:101270004081451F41934081451F41934081451F57
:1012800041934081451F41934081451F41934081D7
:10129000451F41934081451F4193551FB0974081A1
:1012A000539F400D4193EC0111240895222736E20B
:1012B000DB01FC01CE01EB015F965C915F97A0968C
:1012C0006F8D639F500D121E550F111C5695578F31
:1012D00033E1319D36E25D917727500D711D6991A3
:1012E000639F500D711D51935D916991639F570FDD
:1012F0007727711D500D721F51935D916991639F06
:10130000570F7727711D500D721F51935D91699191
:10131000639F570F7727711D500D721F51935D9179
:101320006991639F570F7727711D500D721F51935D
:101330005D916991639F570F7727711D500D721F43
:1013400051935D916991639F570F7727711D500DE0
:10135000721F51935D916991639F570F7727711D9C
:10136000500D721F51935D916991639F570F7727BD
:10137000711D500D721F51935D916991639F570FBD
:101380007727711D500D721F51935D916991639F75
:10139000570F7727711D500D721F51935D91699101
:1013A000639F570F7727711D500D721F51935D91E9
:1013B0006991639F570F7727711D500D721F5193CD
:1013C0005D916991639F570F7727711D500D721FB3
:1013D00051935D916991639F570F7727711D500D50
:1013E000721F51935D916991639F570F7727711D0C
:1013F000500D721F51935D916991639F570F77272D
:10140000711D500D721F51935D916991639F570F2C
:101410007727711D500D721F51935D916991639FE4
:10142000570F7727711D500D721F51935D91699170
:10143000639F570F7727711D500D721F51935D9158
:101440006991639F570F7727711D500D721F51933C
:101450005D916991639F570F7727711D500D721F22
:1014600051935D916991639F570F7727711D500DBF
:10147000721F51935D916991639F570F7727711D7B
:10148000500D721F51935D916991639F570F77279C
:10149000711D500D721F51935D916991639F570F9C
:1014A0007727711D500D721F51935D916991639F54
:1014B000570F7727711D500D721F51935D916991E0
:1014C000639F570F7727711D500D721F51935D91C8
:1014D0006991639F570F7727711D500D721F5193AC
:1014E0005D916991639F570F7727711D500D721F92
:1014F00051935D916991639F570F7727711D500D2F
:10150000721F51935081570F5083EC01112408959D
:10151000DB01FC01CE01EA0136E24D915991451BF8
:1015200041934D915991450B41934D915991450BE3
:1015300041934D915991450B41934D915991450BD3
:1015400041934D915991450B41934D915991450BC3
:1015500041934D915991450B41934D915991450BB3
:1015600041934D915991450B41934D915991450BA3
:1015700041934D915991450B41934D915991450B93
:1015800041934D915991450B41934D915991450B83
:1015900041934D915991450B41934D915991450B73
:1015A00041934D915991450B41934D915991450B63
:1015B00041934D915991450B41934D915991450B53
:1015C00041934D915991450B41934D915991450B43
:1015D00041934D915991450B41934D915991450B33
:1015E00041934D915991450B41934D915991450B23
:1015F00041934D915991450B41934D915991450B13
:1016000041934D915991450B41934D915991450B02
:1016100041934D915991450B41935527551FB097D3
:101620004081539F4019419355274081450B419379
:101630004081450B41934081450B41934081450BCF
:1016400041934081450B41934081450B419340813B
:10165000450B41934081450B41934081450B41939C
:101660004081450B41934081450B41934081450B9F
:1016700041934081450B41934081450B419340810B
:10168000450B41934081450B41934081450B41936C
:101690004081450B41934081450B41934081450B6F
:1016A00041934081450B41934081450B41934081DB
:1016B000450B41934081450B41934081450B41933C
:1016C0004081450B41934081450B41934081450B3F
:1016D00041934081450B41934081450B41934081AB
:1016E000450B4193551FB0974081539F401941933B
:1016F000EC01112408952F923F924F925F926F92C6
:101700007F928F929F92AF92BF92CF92DF92EF9291
:10171000FF920F931F93CF93DF93FC01EA01DB014C
:10172000442755278A012D903D904D905D9068800B
:1017300079808A809B80289C6001269C5001279C90
:10174000B00CC11CD51E399C7001299C9001369C9F
:10175000B00CC11CD21E351F379CC00CD11C351FCC
:10176000499CE30EF01C011D489C9001469CC00C56
:10177000D11CE21E351F389CD00CE11C351F599C32
:10178000F30E001D111D579C9001479CD00C211D8C
:10179000351F569CD00C211D351F589CE20E031E90
:1017A000151EF00C011D151FA082B182C282D382CA
:1017B0005A012D913D914D916C817D818E819F814A
:1017C000269FE00CF11C051FB51E279FF00C011D84
:1017D000B51E369FF00C011D1B1DA51E289F000D78
:1017E000111DA51E379F000D111DA51E469F000D42
:1017F000111DA51EBB24299F100DA11CB51E389FCD
:10180000100DA11CB51E479F100DA11CB51E221A5C
:10181000330A440A2D91520A0008661A770A880A88
:10182000990A110820243024402450246124712472
:101830008124912401941194200C351E451E551EBF
:10184000610C751E851E951E012400FA269F100D41
:10185000A11CB51E399F3327A00CB11C351F489F12
:10186000A00CB11C351F279FA00CB11C351F499F30
:101870004427B00C311D451F289FB00C311D451F5A
:10188000299F300D411D882799272227269CB001CA
:10189000279C700D811D369C700D811D951F289C05
:1018A000800D911D251F379C800D911D251F469C85
:1018B000800D911D251F299C2224900D211D251E80
:1018C000389C900D211D251E479C900D211D251E25
:1018D000569C900D211D251E399C3324200D211C62
:1018E000351E489C200D211C351E579C200D211CA7
:1018F000351E499C4424200C311C451E589C200C4C
:10190000311C451E599C300C411C608071806E0C4E
:101910007F1CC01ED11EEA1CFB1C031F141F551F79
:10192000882480F88A94581D052E0594682578250A
:10193000882598252825282438244824880C661EC4
:10194000771EC81ED91EE21EF21C031D141DA51E03
:10195000B01C301D401D64827582C682D782B701DB
:10196000C8012A2D5B2DCC24DD24760186012D9023
:101970003D904D905D90688479848A849B84269CF8
:101980005001279CB00CC11C369CB00CC11CD11E50
:10199000289CC00CD11CE11E379CC00CD11CE11E40
:1019A000469CC00CD11CE11E299CD00CE11CF11EF0
:1019B000389CD00CE11CF11E479CD00CE11CF11EA0
:1019C000569CD00CE11CF11E6A0D608B7B1D718B47
:1019D0008C1D828B9D1D938BA21EA48AB51EB58A79
:1019E000C31ED41E00080F9244275527399CE00CD3
:1019F000F11C051F489CE00CF11C051F579CE00CD6
:101A0000F11C051F499CF00C011D151F589CF00C82
:101A1000011D151F599C000D111D5A012D913D915D
:101A20004D916C857D858E859F85269FE00CF11CF0
:101A3000051FB51E279FF00C011DB51E369FF00C2B
:101A4000011D1B1DA51E289F000D111DA51E379FE2
:101A5000000D111DA51E469F000D111DA51EBB24C6
:101A6000299F100DA11CB51E389F100DA11CB51E7D
:101A7000479F100DA11CB51E221A330A440A2D914E
:101A8000520A0008661A770A880A990A110820245F
:101A90003024402450246124712481249124019411
:101AA0001194200C351E451E551E610C751E851E99
:101AB000951E012400FA269F100DA11CB51E399F0A
:101AC0003327A00CB11C351F489FA00CB11C351F3B
:101AD000279FA00CB11C351F499F4427B00C311D16
:101AE000451F289FB00C311D451F299F300D411DFA
:101AF000882799272227269CB001279C700D811DDD
:101B0000369C700D811D951F289C800D911D251FF1
:101B1000379C800D911D251F469C800D911D251F12
:101B2000299C2224900D211D251E389C900D211DDD
:101B3000251E479C900D211D251E569C900D211D94
:101B4000251E399C3324200D211C351E489C200D58
:101B5000211C351E579C200D211C351E499C4424F8
:101B6000200C311C451E589C200C311C451E599CD4
:101B7000300C411C648875886E0C7F1CC01ED11E01
:101B8000EA1CFB1C031F141F551F0F900194E00C4F
:101B90000024F01C001D101D882480F88A94581D14
:101BA000052E05946825782588259825282528243C
:101BB00038244824880C661E771EC81ED91EE21ED3
:101BC000F21C031D141DA51EB01C301D401D648A8F
:101BD000758AC68AD78AE08EF18E028F138FA48E03
:101BE000B58E368F478F50972D903D904D905D90DC
:101BF0002D913D914D915D91AD90BD90CD90DD9039
:101C0000ED90FD900D911D91AF93BF93CF93DF9316
:101C10002A183B084C085D082E093F09400B510B60
:101C20000008688079808A809B806C817D818E81AC
:101C30009F81A884B984CA84DB84EC84FD840E85EA
:101C40001F856A187B088C089D086E097F09800B28
:101C5000910B1108202430244024502420253025C5
:101C6000402550256124712481249124612571250A
:101C70008125912501941194AA27BB27200C3A1E97
:101C80004A1E5A1E2A1F3A1F4A1F5A1F610C7A1EEB
:101C90008A1E9A1E6A1F7A1F8A1F9A1F01240F929A
:101CA0008D01289C6001269C5001279CB00CC11C12
:101CB000DA1E399C7001299CE001369CB00CC11CD5
:101CC000DC1EDA1F379CC00CD11CDA1F499CED0EBC
:101CD000F01C011D489CE001469CC00CD11CEC1E70
:101CE000DA1F389CD00CE11CDA1F599CFD0E001D38
:101CF000111D579CE001479CD00CC11DDA1F569C5A
:101D0000D00CC11DDA1F589CEC0E0D1E1A1EF00CD3
:101D1000011D1A1F221A330A440A550A0008661ABE
:101D2000770A880A990A1108202430244024502474
:101D3000612471248124912401941194200C3A1E71
:101D40004A1E5A1E610C7A1E8A1E9A1E012400FA2F
:101D5000289FE001269FE00CF11C0C1FDA1F279F33
:101D6000F00C011DDA1F399F1D0FA01DB11D299F09
:101D7000E001369FF00C011D1C1F2227D21F379F48
:101D8000000D111DD21F499FAD0FB01D2227211D2F
:101D9000489FE001469F000D111DAC1F0024D01D7F
:101DA000389F100DA11D3327D31F599FBD0F201D34
:101DB0009927911D579FE001479F100DC11DD31F0B
:101DC000569F100DC11DD31F589FAC0F0D1E131E23
:101DD000B00D211D931F289CB001269CA001279CBB
:101DE000500D611D731F399C802D022C212C099CE4
:101DF000E001369C500D611D7C1FD31F379C600D88
:101E0000711DD31F499C8D0F201C311D489CE00182
:101E1000469C600D711D8C1F0024D01D389C700DD8
:101E2000811D3324D31D599C2D0E301D9924911CE6
:101E3000579CE001479C700DC11DD31D569C700D31
:101E4000C11DD31D589C8C0F0D1E131C200C311D61
:101E5000931C25013601AE0CBF1CC01ED11EEA1E0C
:101E6000FB1E021F191F002400F80A94301C132CBB
:101E70001594402550256025702580252024302587
:101E80009024000CA41EB51EC61ED71EE81EF21C10
:101E9000031F191DA31DB11D211D911D392F408147
:101EA00051816281738184819581868097800F90B2
:101EB0000A94102C15944024502460247024A024EB
:101EC000B024C024D024E024F02400251025A0252F
:101ED000B02520253025C02DCC0F441D551D661D75
:101EE000771D8A1D9B1D8C1C9D1CCC27CC1F208818
:101EF0003188420D531D40875187A10122883388C4
:101F0000621D731D62877387B10124883588821D25
:101F1000931D84879587C10126883788821C931C6E
:101F20008686978641012224221CC6954E1D5F1D80
:101F3000601F711F8A1F9B1F821E931E0C1E1C1E7A
:101F4000408C518C628C738CA48CB58CC68CD78CD5
:101F50002694441D551D661D771D8A1D9B1D8C1CD6
:101F60009D1C021C121C408B518B628B738B848BCB
:101F7000958B868A978A400C511C611C711CA11C90
:101F8000B11CC11CD11C408E518E628E738EA48EEA
:101F9000B58EC68ED78EDF91CF91BF91AF9144277A
:101FA00055278A012D903D904D905D9068887988E5
:101FB0008A889B88289C6001269C5001279CB00C35
:101FC000C11CD51E399C7001299C9001369CB00C17
:101FD000C11CD21E351F379CC00CD11C351F499C1B
:101FE000E30EF01C011D489C9001469CC00CD11CC6
:101FF000E21E351F389CD00CE11C351F599CF30E96
:10200000001D111D579C9001479CD00C211D351FB0
:10201000569CD00C211D351F589CE20E031E151E28
:10202000F00C011D151FA0A2B1A2C2A2D3A25A0199
:102030002D913D914D916C897D898E899F89269F37
:10204000E00CF11C051FB51E279FF00C011DB51EED
:10205000369FF00C011D1B1DA51E289F000D111D94
:10206000A51E379F000D111DA51E469F000D111DB9
:10207000A51EBB24299F100DA11CB51E389F100D55
:10208000A11CB51E479F100DA11CB51E221A330AB4
:10209000440A2D91520A0008661A770A880A990A9A
:1020A00011082024302440245024612471248124E8
:1020B000912401941194200C351E451E551E610C6F
:1020C000751E851E951E012400FA269F100DA11C69
:1020D000B51E399F3327A00CB11C351F489FA00C9B
:1020E000B11C351F279FA00CB11C351F499F4427E9
:1020F000B00C311D451F289FB00C311D451F299F75
:10210000300D411D882799272227269CB001279C46
:10211000700D811D369C700D811D951F289C800DB2
:10212000911D251F379C800D911D251F469C800DFC
:10213000911D251F299C2224900D211D251E389CB0
:10214000900D211D251E479C900D211D251E569C7E
:10215000900D211D251E399C3324200D211C351E78
:10216000489C200D211C351E579C200D211C351E1E
:10217000499C4424200C311C451E589C200C311CC9
:10218000451E599C300C411C60A071A06E0C7F1C38
:10219000C01ED11EEA1CFB1C031F141F882480F8DC
:1021A0008A94581D052E059468257825882598253C
:1021B0002825282438244824880C661E771EC81E2B
:1021C000D91EE21EF21C031D141DA51EB01C301DDD
:1021D000401D64A275A2C6A2D7A2B701C8012A2DCC
:1021E0005B2DCC24DD24760186012D903D904D9011
:1021F0005D90688C798C8A8C9B8C269C5001279CE6
:10220000B00CC11C369CB00CC11CD11E289CC00C4B
:10221000D11CE11E379CC00CD11CE11E469CC00C99
:10222000D11CE11E299CD00CE11CF11E389CD00C65
:10223000E11CF11E479CD00CE11CF11E569CD00CF9
:10224000E11CF11E6A0D60AB7B1D71AB8C1D82AB76
:102250009D1D93ABA21EA4AAB51EB5AAC31ED41E73
:1022600000080F9244275527399CE00CF11C051FEC
:10227000489CE00CF11C051F579CE00CF11C051F4D
:10228000499CF00C011D151F589CF00C011D151FD9
:10229000599C000D111D5A012D913D914D916C8D50
:1022A0007D8D8E8D9F8D269FE00CF11C051FB51E28
:1022B000279FF00C011DB51E369FF00C011D1B1D44
:1022C000A51E289F000D111DA51E379F000D111D75
:1022D000A51E469F000D111DA51EBB24299F100D94
:1022E000A11CB51E389F100DA11CB51E479F100DD7
:1022F000A11CB51E221A330A440A2D91520A000865
:10230000661A770A880A990A110820243024402482
:102310005024612471248124912401941194200C6F
:10232000351E451E551E610C751E851E951E012409
:1023300000FA269F100DA11CB51E399F3327A00C53
:10234000B11C351F489FA00CB11C351F279FA00C46
:10235000B11C351F499F4427B00C311D451F289FD4
:10236000B00C311D451F299F300D411D882799272D
:102370002227269CB001279C700D811D369C700D74
:10238000811D951F289C800D911D251F379C800D58
:10239000911D251F469C800D911D251F299C2224DF
:1023A000900D211D251E389C900D211D251E479C3A
:1023B000900D211D251E569C900D211D251E399C1A
:1023C0003324200D211C351E489C200D211C351E58
:1023D000579C200D211C351E499C4424200C311C87
:1023E000451E589C200C311C451E599C300C411C2C
:1023F00064A875A86E0C7F1CC01ED11EEA1CFB1CB5
:10240000031F141F551F0F900194E00C0024F01CB3
:10241000001D101D882480F88A94581D052E0594EF
:1024200068257825882598252825282438244824B7
:10243000880C661E771EC81ED91EE21EF21C031DE4
:10244000141DA51EB01C301D401D64AA75AAC6AA85
:10245000D7AAE0AEF1AE02AF13AFA4AEB5AE36AFC1
:1024600047AF50972D903D904D905D902D913D91AF
:102470004D915D91AD90BD90CD90DD90ED90FD9032
:102480000D911D91AF93BF93CF93DF932A183B0813
:102490004C085D082E093F09400B510B0008688865
:1024A00079888A889B886C897D898E899F89A88C88
:1024B000B98CCA8CDB8CEC8CFD8C0E8D1F8D6A1850
:1024C0007B088C089D086E097F09800B910B110811
:1024D0002024302440245024202530254025502518
:1024E0006124712481249124612571258125912500
:1024F00001941194AA27BB27200C3A1E4A1E5A1E8B
:102500002A1F3A1F4A1F5A1F610C7A1E8A1E9A1EE2
:102510006A1F7A1F8A1F9A1F01240F928D01289C1F
:102520006001269C5001279CB00CC11CDA1E399C0E
:102530007001299CE001369CB00CC11CDC1EDA1F26
:10254000379CC00CD11CDA1F499CED0EF01C011DFC
:10255000489CE001469CC00CD11CEC1EDA1F389C44
:10256000D00CE11CDA1F599CFD0E001D111D579C5B
:10257000E001479CD00CC11DDA1F569CD00CC11D38
:10258000DA1F589CEC0E0D1E1A1EF00C011D1A1FAE
:10259000221A330A440A550A0008661A770A880A7A
:1025A000990A1108202430244024502461247124E5
:1025B0008124912401941194200C3A1E4A1E5A1E23
:1025C000610C7A1E8A1E9A1E012400FA289FE001DF
:1025D000269FE00CF11C0C1FDA1F279FF00C011D39
:1025E000DA1F399F1D0FA01DB11D299FE001369FE5
:1025F000F00C011D1C1F2227D21F379F000D111D3B
:10260000D21F499FAD0FB01D2227211D489FE00119
:10261000469F000D111DAC1F0024D01D389F100DCA
:10262000A11D3327D31F599FBD0F201D9927911D31
:10263000579FE001479F100DC11DD31F569F100DDE
:10264000C11DD31F589FAC0F0D1E131EB00D211DB1
:10265000931F289CB001269CA001279C500D611D52
:10266000731F399C802D022C212C099CE001369C83
:10267000500D611D7C1FD31F379C600D711DD31F32
:10268000499C8D0F201C311D489CE001469C600D2B
:10269000711D8C1F0024D01D389C700D811D3324AA
:1026A000D31D599C2D0E301D9924911C579CE0017F
:1026B000479C700DC11DD31D569C700DC11DD31DAF
:1026C000589C8C0F0D1E131C200C311D931C2501D2
:1026D0003601AE0CBF1CC01ED11EEA1EFB1E021F1F
:1026E000191F002400F80A94301C132C159440255F
:1026F0005025602570258025202430259024000C4D
:10270000A41EB51EC61ED71EE81EF21C031F191DEF
:10271000A31DB11D211D911D392F40A151A162A101
:1027200073A184A195A186A097A01088140E10A271
:102730001188151E11A21288161E12A21388171EC8
:1027400013A21488181E14A21588191E15A2168823
:10275000181C16A21788191C17A2CC27CC1F0F9083
:102760000A94102C15944024502460247024A02432
:10277000B024C024D024E024F02400251025A02576
:10278000B02520253025202C220C441D551D661D0A
:10279000771D8A1D9B1D8C1C9D1C40AC51AC62ACEE
:1027A00073ACA4ACB5ACC6ACD7AC4E1C5F1C601E01
:1027B000711EAA1EBB1EC21ED31EBB270B1E1B1ED4
:1027C000E0A8F1A802A913A9A4A9B5A926A937A927
:1027D0004E0D5F1D601F711F8A1F9B1F821E931E5F
:1027E0004E1C5F1C601E711EAA1EBB1EC21ED31E85
:1027F000EE240E1C1E1CC695C08D4C1FC18D5C1F87
:10280000C28D6C1FC38D7C1FC48D8C1FC58D9C1FFA
:10281000C68D8C1EC78D9C1E4E1C5E1C6E1C7E1CA5
:10282000AE1CBE1CCE1CDE1C0E1C1E1C40A751A7DD
:1028300062A773A784A795A786A697A640AA51AAC0
:1028400062AA73AAA4AAB5AAC6AAD7AA40AC51ACD8
:1028500062AC73ACA4ACB5ACC6ACD7AC400C511CEC
:10286000611C711CA11CB11CC11CD11C40AE51AE1D
:1028700062AE73AEA4AEB5AEC6AED7AEDF91CF91A9
:10288000BF91AF9190972D903D904D905D902D917F
:102890003D914D915D91AD90BD90CD90DD90ED90CD
:1028A000FD900D911D910D9020180D9030080D9008
:1028B00040080D9050080D9020090D9030090D90A2
:1028C00040090D9050090D90A0080D90B0080D9092
:1028D000C0080D90D0080D90E0080D90F0080D9004
:1028E00000090C90100900082024302440245024B2
:1028F0002025302540255025A024B024C024D024F4
:10290000E024F024002510250194AA27BB27200CE1
:102910003A1E4A1E5A1E2A1F3A1F4A1F5A1FAA1E33
:10292000BA1ECA1EDA1EEA1EFA1E0A1F1A1F1F93BB
:102930000F93FF92EF92DF92CF92BF92AF925F938D
:102940004F933F932F935F924F923F922F926880C5
:1029500079808A809B806C817D818E819F81A88413
:10296000B984CA84DB84EC84FD840E851F851888B5
:102970006118198871081A8881081B8891081C88B9
:1029800061091D8871091E8881091F889109188CA9
:10299000A108198CB1081A8CC1081B8CD1081C8C99
:1029A000E1081D8CF1081E8C01091F8C110911080A
:1029B000612471248124912461257125812591252B
:1029C000A124B124C124D124E124F124012511251D
:1029D0001194610C7A1E8A1E9A1E6A1F7A1F8A1F22
:1029E0009A1FAA1EBA1ECA1EDA1EEA1EFA1E0A1F65
:1029F0001A1F1F930F93FF92EF92DF92CF92BF9215
:102A0000AF929F938F937F936F939F928F927F92BA
:102A10006F9201240F926D017D018D01269C500162
:102A2000279CB00CC11C369CB00CC11CDA1E289C23
:102A3000C00CD11CEA1E379CC00CD11CEA1E469C5F
:102A4000C00CD11CEA1E299CD00CE11CFA1E389C3B
:102A5000D00CE11CFA1E479CD00CE11CFA1E569CBF
:102A6000D00CE11CFA1E399CE00CF11C0A1F489C9A
:102A7000E00CF11C0A1F579CE00CF11C0A1F499C3A
:102A8000F00C011D1A1F589CF00C011D1A1F599CB7
:102A9000000D111DBF92AF925D01269FE00CF11C4D
:102AA0000A1FBA1E279FF00C011DBA1E369FF00C9C
:102AB000011D1B1DAA1E289F000D111DAA1E379F58
:102AC000000D111DAA1E469F000D111DAA1EBB243C
:102AD000299F100DA11CBA1E389F100DA11CBA1EF3
:102AE000479F100DA11CBA1E221A330A440A550A28
:102AF0000008661A770A880A990A110820243024E7
:102B0000402450246124712481249124019411943F
:102B1000200C3A1E4A1E5A1E610C7A1E8A1E9A1EEC
:102B2000012400FA569F100DA11CBA1E399F3327AD
:102B3000A00CB11C3A1F489FA00CB11C3A1F579F14
:102B4000A00CB11C3A1F499F4427B00C311D4A1FED
:102B5000589FB00C311D4A1F599F300D411DCD01AA
:102B60002227269CB001279C700D811D369C700D7C
:102B7000811D9A1F289C800D911D2A1F379C800D56
:102B8000911D2A1F469C800D911D2A1F299C2224DD
:102B9000900D211D2A1E389C900D211D2A1E479C38
:102BA000900D211D2A1E569C900D211D2A1E399C18
:102BB0003324200D211C3A1E489C200D211C3A1E56
:102BC000579C200D211C3A1E499C4424200C311C8A
:102BD0004A1E589C200C311C4A1E599C300C411C2A
:102BE0006F907F904301E6016E0C7F1CC01ED11ECA
:102BF000EA1CFB1C031F141F112410F81A94A11DBA
:102C00000A2E0594612571258125912521252124F0
:102C100031244124110C661E771EC81ED91EE21EE7
:102C2000F21C031D141DAA1EB01C301D401DB7014F
:102C3000C8012A2D5B2D8F929F92CF93DF936F92C5
:102C40007F92CF92DF92CDB7DEB7A196CDBFDEBF28
:102C50002F903F904F905F906097CDBFDEBF6F90F9
:102C60007F908F909F906197CDBFDEBFAA276D01A7
:102C70007D018D01269C5001279CB00CC11C369C07
:102C8000B00CC11CDA1E289CC00CD11CEA1E379C5B
:102C9000C00CD11CEA1E469CC00CD11CEA1E299C0B
:102CA000D00CE11CFA1E389CD00CE11CFA1E479C8B
:102CB000D00CE11CFA1E569CD00CE11CFA1E399C6B
:102CC000E00CF11C0A1F489CE00CF11C0A1F579CE9
:102CD000E00CF11C0A1F499CF00C011D1A1F589CA6
:102CE000F00C011D1A1F599C000D111D6A0D6F93E8
:102CF0007B1D7F938C1D8F939D1D9F93A21EAF9272
:102D0000B51EBF92C31ED41EBA1FA596CDBFDEBF8F
:102D10002F913F914F915F916097CDBFDEBF6F9133
:102D20007F918F919F916B97CDBFDEBFAA24BB246B
:102D3000269FE00CF11C0A1FBA1E279FF00C011DF4
:102D4000BA1E369FF00C011D1B1DAA1E289F000DE8
:102D5000111DAA1E379F000D111DAA1E469F000DB2
:102D6000111DAA1EBB24299F100DA11CBA1E389F3D
:102D7000100DA11CBA1E479F100DA11CBA1E221ACD
:102D8000330A440A550A0008661A770A880A990A1B
:102D900011082024302440245024612471248124EB
:102DA000912401941194200C3A1E4A1E5A1E610C63
:102DB0007A1E8A1E9A1E012400FA569F100DA11C2D
:102DC000BA1E399F3327A00CB11C3A1F489FA00C94
:102DD000B11C3A1F579FA00CB11C3A1F499F4427B2
:102DE000B00C311D4A1F589FB00C311D4A1F599F0E
:102DF000300D411D882799272227269CB001279C4A
:102E0000700D811D369C700D811D9A1F289C800DB0
:102E1000911D2A1F379C800D911D2A1F469C800DF5
:102E2000911D2A1F299C2224900D211D2A1E389CA9
:102E3000900D211D2A1E479C900D211D2A1E569C77
:102E4000900D211D2A1E399C3324200D211C3A1E71
:102E5000489C200D211C3A1E579C200D211C3A1E17
:102E6000499C4424200C311C4A1E589C200C311CC7
:102E70004A1E599C300C411C7F906F906E0C7F1C39
:102E8000C01ED11EEA1CFB1C031F141FAA1FEB0E41
:102E9000BB27FB1E0B1F1B1F112410F81A94A11D2A
:102EA0000A2E05946125712581259125212521244E
:102EB00031244124110C661E771EC81ED91EE21E45
:102EC000F21C031D141DAA1EB01C301D401D6F9264
:102ED0007F92CF92DF92EF92FF920F931F93AF9268
:102EE000BF923F934F936F96CDBFDEBF2F903F9021
:102EF0004F905F902F913F914F915F91AF90BF9016
:102F0000CF90DF90EF90FF900F911F912A183B0810
:102F10004C085D082E093F09400B510B00086097D3
:102F2000CDBFDEBF6F907F908F909F906F917F910C
:102F30008F919F91AF90BF90CF90DF90EF90FF90D7
:102F40000F911F916997CDBFDEBF6A187B088C086F
:102F50009D086E097F09800B910B110820243024F5
:102F600040245024202530254025502561247124FB
:102F70008124912461257125812591250194119445
:102F8000AA27200C3A1E4A1E5A1E2A1F3A1F4A1F01
:102F90005A1F610C7A1E8A1E9A1E6A1F7A1F8A1F88
:102FA0009A1F01240F926D0176018601E601269C8D
:102FB0005001279CB00CC11C369CB00CC11CDA1E01
:102FC000289CC00CD11CEA1E379CC00CD11CEA1EE8
:102FD000469CC00CD11CEA1E299CD00CE11CFA1E98
:102FE000389CD00CE11CFA1E479CD00CE11CFA1E48
:102FF000569CD00CE11CFA1E399CE00CF11C0A1FF7
:10300000489CE00CF11C0A1F579CE00CF11C0A1FA5
:10301000499CF00C011D1A1F589CF00C011D1A1F31
:10302000599C000D111D269FE00CF11C0A1FDA1F90
:10303000279FF00C011DDA1F369FF00C011D1D1F8C
:10304000CA1F289F000D111DCA1F379F000D111D9B
:10305000CA1F469F000D111DCA1FDD27299F100D95
:10306000C11DDA1F389F100DC11DDA1F479F100DBB
:10307000C11DDA1F221A330A440A550A0008661ACB
:10308000770A880A990A1108202430244024502401
:10309000612471248124912401941194200C3A1EFE
:1030A0004A1E5A1E610C7A1E8A1E9A1E012400FABC
:1030B000569F100DC11DDA1F399F3327C00DD11D3A
:1030C0003A1F489FC00DD11D3A1F579FC00DD11DFB
:1030D0003A1F499F4427D00D311D4A1F589FD00DDC
:1030E000311D4A1F599F300D411D882799272227DE
:1030F000269CB001279C700D811D369C700D811D92
:103100009A1F289C800D911D2A1F379C800D911DB0
:103110002A1F469C800D911D2A1F299C2224900D58
:10312000211D2A1E389C900D211D2A1E479C900DA2
:10313000211D2A1E569C900D211D2A1E399C3324C8
:10314000200D211C3A1E489C200D211C3A1E579C24
:10315000200D211C3A1E499C4424200C311C4A1E7F
:10316000589C200C311C4A1E599C300C411C3501C6
:103170004601AE0CBF1CC01ED11EEC1EFD1E031F5F
:10318000141FB0F9BA95AB1F0A2E05946B277B2745
:103190008B279B272B272B263B264B26BB0FA61EB8
:1031A000B71EC81ED91EE21EF21C031D141DCA1F25
:1031B000D01D301D401D0F900A94ADB7BEB750967C
:1031C000ADBFBEBF8F917F916F915F915F904F9028
:1031D0003F902F905097ADBFBEBF102C1594602428
:1031E000702480249024A024B024C024D024E0247F
:1031F000F02400251025C025D02530254025B02DF0
:10320000BB0F261C371C481C591C5A1D6B1D7C1DEE
:103210008D1DDF90CF90BF90AF909F908F907F904B
:103220006F906E1C7F1C801E911EAC1EBD1EC31EA7
:10323000D41EBB270B1E1B1E4F913F91DF91CF91D8
:103240001F910F91FF90EF902E0C3F1C401E511EBE
:103250005C1F6D1F731F841F6E1C7F1C801E911EC0
:10326000AC1EBD1EC31ED41E0B1E1B1ECDB7DEB76B
:103270006097CDBFDEBF9F914F913F912F911F91DE
:103280000F91FF90EF90E00CF11C011D111D211D0D
:10329000311D411D911D6096CDBFDEBFEF92FF92A3
:1032A0000F931F932F933F934F939F93CDBFDEBFF9
:1032B0009F914F913F912F911F910F91FF90EF9010
:1032C0000F900A942897CDBFDEBF102C1594E024F0
:1032D000F024002510252025302540259025202488
:1032E0003024402450245025602570258025B02DA1
:1032F000BB0FC081CE1DD181DF1DE280E01EF380B7
:10330000F11E0481021F1581131F2681241F37819E
:10331000391F4085421D9185931D2284241C3384CE
:10332000351C4484451E5584561E5685571F678597
:10333000681FBB27BB1F80A1C80FC08B81A1D81FEE
:10334000D18B82A1E81EE28A83A1F81EF38A84A1B0
:10335000081F048B85A1181F158B86A1281F268B9B
:1033600087A1381F378B80A5481F408F81A5981FE4
:10337000918F82A5281E228E83A5381E338E84A5A8
:10338000481E448E85A5581E558E86A5581F568FFB
:1033900087A5681F678FAA27AA1F8F917F916F91BA
:1033A0005F915F904F903F902F9060247024802415
:1033B0009024A024B024C024D024202430244024ED
:1033C00050245025602570258025B695C0A9C61DBE
:1033D000D1A9D71DE2A8E81CF3A8F91C04A90A1D6D
:1033E00015A91B1D26A92C1D37A93D1D40AD421D49
:1033F00091AD931D22AC241C33AC351C44AC451E4E
:1034000055AC561E56AD571F67AD681F0B1E1B1ED1
:10341000A69580A1C81FC0A381A1D81FD1A382A156
:10342000E81EE2A283A1F81EF3A284A1081F04A350
:1034300085A1181F15A386A1281F26A387A1381FC1
:1034400037A380A5481F40A781A5981F91A782A5F3
:10345000281E22A683A5381E33A684A5481E44A68E
:1034600085A5581E55A686A5581F56A787A5681F6F
:1034700067A70A1E1A1EC0A9D1A9E2A8F3A804A929
:1034800015A926A937A940AD91AD22AC33AC44AC07
:1034900055AC56AD67ADC00DD11DE11CF11C011D31
:1034A000111D211D311D411D911D211C311C411C6F
:1034B000511C511D611DC0ABD1ABE2AAF3AA04ABF4
:1034C00015AB26AB37AB40AF91AF22AE33AE44AEB7
:1034D00055AE56AF67AFCDB7DEB7A996CDBFDEBF4D
:1034E0001124DF91CF911F910F91FF90EF90DF900A
:1034F000CF90BF90AF909F908F907F906F905F9094
:103500004F903F902F9008952F923F924F925F924D
:103510006F927F928F929F92AF92BF92CF92DF92E3
:10352000EF92FF920F931F93CF93DF93FC01EB0178
:10353000288039804A805B806C807D808E809F806F
:10354000AA27BB27CF93DF93239C50016D01249CB6
:10355000B00CC11C7D01259CC00CD11C349CC00C3E
:10356000D11CEA1E269CD00CE11C359CD00CE11C21
:10357000FA1E8D01279CE00CF11C0A1F369CE00C02
:10358000F11C0A1F459CE00CF11C0A1F289CF00C42
:10359000011D1A1F379CF00C011D1A1F469CF00CD0
:1035A000011D1A1F9D01299C000D111D2A1F389C09
:1035B000000D111D2A1F479C000D111D2A1F569C2E
:1035C000000D111D2A1FAA1CBB1CCC1CDD1CEE1CEF
:1035D000FF1C001F990B229C0082212C339CA00110
:1035E000449CB001559CA20CA182B41EB282C51E9F
:1035F000C382D61ED482E71EE582F01CF682011D2E
:1036000007839A0B399C100D211D3A1F489C100D01
:10361000211D3A1F579C100D211D3A1FAD01499CD9
:10362000200D311D4A1F589C200D311D4A1F679CDB
:10363000200D311D4A1F599C300D411D5A1F689C99
:10364000300D411D5A1FBD01699C400D511D6A1F5F
:10365000789C400D511D6A1F799C500D611D7A1F89
:103660008827899C600D711D8A1F111F221F331F1F
:10367000441F551F661F771F881F669C9195090E72
:103680001A1E5001779C6001889C7001999C100162
:103690001A0D2B1D3C1D4D1D5E1D6F1D721D831DC2
:1036A000288439844A845B846C847D848E849F84DE
:1036B000239C50016D01249CB00CC11C7D01259CF4
:1036C000C00CD11C349CC00CD11CEA1E269CD00C12
:1036D000E11C359CD00CE11CFA1E0A2F279CE00C43
:1036E000F11C0A1F369CE00CF11C0A1F459CE00CE3
:1036F000F11C0A1F289CF00C011DAB1F379CF00C1D
:10370000011DAB1F469CF00C011DAB1F299C000D39
:10371000A11DBB0B389C000DA11DB040479C000DA6
:10372000A11DB040569C000DA11DB040B195AA0C42
:10373000BB1CCC1CDD1CEE1CFF1C001F990BA20E39
:10374000B31EC41ED51EE61EF71E081F9040229C05
:103750009001339CA001449CB001559C210F208B0B
:10376000A31EA18AB41EB28AC51EC38AD61ED48ADD
:10377000E71EE58AF01CF68A011D078B9040112791
:103780003327399CA00DB11D311F489CA00DB11DE0
:10379000311F579CA00DB11D311F412F499CB00D09
:1037A000311D411F589CB00D311D411F679CB00D4C
:1037B000311D411F512F599C300D411D511F689CD7
:1037C000300D411D511F612F699C400D511D611F1E
:1037D000789C400D511D611F712F799C500D611D0A
:1037E000711F8827899C600D711D811FAA1FBB1F37
:1037F000331F441F551F661F771F881F669C9195B6
:10380000090E111E5001779C6001889C7001999CE3
:10381000AA0DA08FBB1DB18F3C1D328F4D1D438F54
:103820005E1D548F6F1D658F701D768F811D878F74
:10383000A880B980CA80DB80EC80FD800E811F816A
:103840002A183B084C085D086E087F08800A910A18
:10385000BB27AA0B2A263A264A265A266A267A2601
:103860008A269A26A1952A0E3B1E4B1E5B1E6B1EB6
:103870007B1E8B1E9B1EAA27239C50016D01249C3E
:10388000B00CC11C7D01259CC00CD11C349CC00C0B
:10389000D11CEA1E269CD00CE11C359CD00CE11CEE
:1038A000FA1E8D01279CE00CF11C0A1F369CE00CCF
:1038B000F11C0A1F459CE00CF11C0A1F289CF00C0F
:1038C000011D1A1F379CF00C011D1A1F469CF00C9D
:1038D000011D1A1F9D01299C000D111D2A1F389CD6
:1038E000000D111D2A1F479C000D111D2A1F569CFB
:1038F000000D111D2A1FAA1CBB1CCC1CDD1CEE1CBC
:10390000FF1C001F990B229CE001339CA001449CEA
:10391000B001559CAD0EB41EC51ED61EE71EF01C90
:10392000011D9A0B399C100D211D3A1F489C100D4A
:10393000211D3A1F579C100D211D3A1FAD01499CB6
:10394000200D311D4A1F589C200D311D4A1F679CB8
:10395000200D311D4A1F599C300D411D5A1F689C76
:10396000300D411D5A1FBD01699C400D511D6A1F3C
:10397000789C400D511D6A1F799C500D611D7A1F66
:103980008827899C600D711D8A1F111F221F331FFC
:10399000441F551F661F771F881F669C9195090E4F
:1039A0001A1E1001779C2001889C3001999C120DF1
:1039B000231D341D451D561D671D701D811D20884A
:1039C0003188428853886488758886889788C219A8
:1039D000A308B408C508D608E708F80809090008CC
:1039E000D081DC1BD087D181DA09D187D281DB0974
:1039F000D287D381DC09D387D481DD09D487D581EF
:103A0000DE09D587D681DF09D687D781D00BD78746
:103A1000210A320A430A540A650A760A870A980A72
:103A2000AA0BA08CB18CC28CD38CE48CF58C068D47
:103A3000178D000C2A1C3B1C4C1C5D1C6E1C7F1C33
:103A4000801E911E208A318A428A538A648A758A2E
:103A5000868A978A2227A21FBA2FB595AA0EBB1E67
:103A6000CB1EDB1EEB1EFB1E0B1F1B1FA08EB18E81
:103A7000C28ED38EE48EF58E068F178FDF91CF9195
:103A80006096B096288039804A805B806C807D800B
:103A90008E809F80AA27BB27CF93DF93239C500162
:103AA0006D01249CB00CC11C7D01259CC00CD11C57
:103AB000349CC00CD11CEA1E269CD00CE11C359C09
:103AC000D00CE11CFA1E8D01279CE00CF11C0A1F92
:103AD000369CE00CF11C0A1F459CE00CF11C0A1FEF
:103AE000289CF00C011D1A1F379CF00C011D1A1F99
:103AF000469CF00C011D1A1F9D01299C000D111DF3
:103B00002A1F389C000D111D2A1F479C000D111DF6
:103B10002A1F569C000D111D2A1FAA1CBB1CCC1C61
:103B2000DD1CEE1CFF1C001F990B229C0082212C27
:103B3000339CA001449CB001559CA20CA182B41EF0
:103B4000B282C51EC382D61ED482E71EE582F01C57
:103B5000F682011D07839A0B399C100D211D3A1F17
:103B6000489C100D211D3A1F579C100D211D3A1F16
:103B7000AD01499C200D311D4A1F589C200D311D5F
:103B80004A1F679C200D311D4A1F599C300D411D55
:103B90005A1F689C300D411D5A1FBD01699C400D84
:103BA000511D6A1F789C400D511D6A1F799C500D54
:103BB000611D7A1F8827899C600D711D8A1F111F46
:103BC000221F331F441F551F661F771F881F669CC7
:103BD0009195090E1A1E5001779C6001889C700116
:103BE000999C10011A0D2B1D3C1D4D1D5E1D6F1D56
:103BF000721D831D288439844A845B846C847D848F
:103C00008E849F84239C50016D01249CB00CC11CA8
:103C10007D01259CC00CD11C349CC00CD11CEA1E1B
:103C2000269CD00CE11C359CD00CE11CFA1E0A2FFE
:103C3000279CE00CF11C0A1F369CE00CF11C0A1FAB
:103C4000459CE00CF11C0A1F289CF00C011DAB1FC9
:103C5000379CF00C011DAB1F469CF00C011DAB1FE7
:103C6000299C000DA11DBB0B389C000DA11DB0406F
:103C7000479C000DA11DB040569C000DA11DB040F9
:103C8000B195AA0CBB1CCC1CDD1CEE1CFF1C001F3C
:103C9000990BA20EB31EC41ED51EE61EF71E081FEA
:103CA0009040229C9001339CA001449CB001559C03
:103CB000210F208BA31EA18AB41EB28AC51EC38AFF
:103CC000D61ED48AE71EE58AF01CF68A011D078BF2
:103CD000904011273327399CA00DB11D311F489CFE
:103CE000A00DB11D311F579CA00DB11D311F412FDB
:103CF000499CB00D311D411F589CB00D311D411F15
:103D0000679CB00D311D411F512F599C300D411D35
:103D1000511F689C300D411D511F612F699C400D42
:103D2000511D611F789C400D511D611F712F799CA1
:103D3000500D611D711F8827899C600D711D811FA9
:103D4000AA1FBB1F331F441F551F661F771F881FE5
:103D5000669C9195090E111E5001779C6001889C0C
:103D60007001999CAA0DA08FBB1DB18F3C1D328F95
:103D70004D1D438F5E1D548F6F1D658F701D768F97
:103D8000811D878FA880B980CA80DB80EC80FD8090
:103D90000E811F812A183B084C085D086E087F08B9
:103DA000800A910ABB27AA0B2A263A264A265A26B7
:103DB0006A267A268A269A26A1952A0E3B1E4B1E33
:103DC0005B1E6B1E7B1E8B1E9B1EAA27239C500115
:103DD0006D01249CB00CC11C7D01259CC00CD11C24
:103DE000349CC00CD11CEA1E269CD00CE11C359CD6
:103DF000D00CE11CFA1E8D01279CE00CF11C0A1F5F
:103E0000369CE00CF11C0A1F459CE00CF11C0A1FBB
:103E1000289CF00C011D1A1F379CF00C011D1A1F65
:103E2000469CF00C011D1A1F9D01299C000D111DBF
:103E30002A1F389C000D111D2A1F479C000D111DC3
:103E40002A1F569C000D111D2A1FAA1CBB1CCC1C2E
:103E5000DD1CEE1CFF1C001F990B229CE001339C13
:103E6000A001449CB001559CAD0EB41EC51ED61ECB
:103E7000E71EF01C011D9A0B399C100D211D3A1FE5
:103E8000489C100D211D3A1F579C100D211D3A1FF3
:103E9000AD01499C200D311D4A1F589C200D311D3C
:103EA0004A1F679C200D311D4A1F599C300D411D32
:103EB0005A1F689C300D411D5A1FBD01699C400D61
:103EC000511D6A1F789C400D511D6A1F799C500D31
:103ED000611D7A1F8827899C600D711D8A1F111F23
:103EE000221F331F441F551F661F771F881F669CA4
:103EF0009195090E1A1E1001779C2001889C3001B3
:103F0000999C120D231D341D451D561D671D701DE6
:103F1000811D208831884288538864887588868806
:103F20009788C219A308B408C508D608E708F80896
:103F300009090008D081DC1BD087D181DA09D1873B
:103F4000D281DB09D287D381DC09D387D481DD0913
:103F5000D487D581DE09D587D681DF09D687D78179
:103F6000D00BD787210A320A430A540A650A760A17
:103F7000870A980AAA0BA08CB18CC28CD38CE48CD3
:103F8000F58C068D178D000C2A1C3B1C4C1C5D1CEF
:103F90006E1C7F1C801E911E208A318A428A538AA1
:103FA000648A758A868A978A2227A21FBA2FB595B6
:103FB000AA0EBB1ECB1EDB1EEB1EFB1E0B1F1B1F08
:103FC000A08EB18EC28ED38EE48EF58E068F178FA3
:103FD000DF91CF916097B097008810A0010C00A2EC
:103FE000018811A0011C01A2028812A0011C02A2DA
:103FF000038813A0011C03A2048814A0011C04A2BE
:10400000058815A0011C05A2068816A0011C06A2A1
:10401000078817A0011C07A2008C10A4011C00A691
:10402000018C11A4011C01A6028C12A4011C02A681
:10403000038C13A4011C03A6048C14A4011C04A665
:10404000058C15A4011C05A6068C16A4011C06A649
:10405000078C17A4011C07A60024201C20AA301CD2
:1040600031AA401C42AA501C53AA601C64AA701CAE
:1040700075AA801C86AA901C97AAA01CA0AEB01C92
:10408000B1AEC01CC2AED01CD3AEE01CE4AEF01C7E
:10409000F5AE001D06AF101D17AF288039804A808D
:1040A0005B806C807D808E809F80A884B984CA8468
:1040B000DB84EC84FD840E851F8508882018098820
:1040C00030080A8840080B8850080C8860080D8862
:1040D00070080E8880080F889008088CA008098C4A
:1040E000B0080A8CC0080B8CD0080C8CE0080D8C32
:1040F000F0080E8C00090F8C1009000820243024D1
:10410000402450246024702480249024A024B024CF
:10411000C024D024E024F024002510250194662733
:10412000200C361E461E561E661E761E861E961EC7
:10413000A61EB61EC61ED61EE61EF61E061F161F9D
:10414000CDB7DEB727971A930A93FA92EA92DA92DA
:10415000CA92BA92AA929A928A927A926A925A923F
:104160004A923A922A92EF93FF93FE01B097AA27C0
:10417000BB27CF93DF93239C50016D01249CB00C8F
:10418000C11C7D01259CC00CD11C349CC00CD11CD1
:10419000EA1E269CD00CE11C359CD00CE11CFA1EBA
:1041A0008D01279CE00CF11C0A1F369CE00CF11CD1
:1041B0000A1F459CE00CF11C0A1F289CF00C011DF5
:1041C0001A1F379CF00C011D1A1F469CF00C011D94
:1041D0001A1F9D01299C000D111D2A1F389C000DDE
:1041E000111D2A1F479C000D111D2A1F569C000DF2
:1041F000111D2A1FAA1CBB1CCC1CDD1CEE1CFF1CA5
:10420000001F990B229C0082212C339CA001449C0E
:10421000B001559CA20CA182B41EB282C51EC382FD
:10422000D61ED482E71EE582F01CF682011D0783AC
:104230009A0B399C100D211D3A1F489C100D211D11
:104240003A1F579C100D211D3A1FAD01499C200DAE
:10425000311D4A1F589C200D311D4A1F679C200D9F
:10426000311D4A1F599C300D411D5A1F689C300D4D
:10427000411D5A1FBD01699C400D511D6A1F789C4C
:10428000400D511D6A1F799C500D611D7A1F8827B2
:10429000899C600D711D8A1F111F221F331F441F2F
:1042A000551F661F771F881F669C9195090E1A1E61
:1042B0005001779C6001889C7001999C10011A0D37
:1042C0002B1D3C1D4D1D5E1D6F1D721D831D288401
:1042D00039844A845B846C847D848E849F84239C8F
:1042E00050016D01249CB00CC11C7D01259CC00CAB
:1042F000D11C349CC00CD11CEA1E269CD00CE11CA5
:10430000359CD00CE11CFA1E0A2F279CE00CF11CF6
:104310000A1F369CE00CF11C0A1F459CE00CF11CA6
:104320000A1F289CF00C011DAB1F379CF00C011DCF
:10433000AB1F469CF00C011DAB1F299C000DA11D5D
:10434000BB0B389C000DA11DB040479C000DA11D6A
:10435000B040569C000DA11DB040B195AA0CBB1CED
:10436000CC1CDD1CEE1CFF1C001F990BA20EB31E03
:10437000C41ED51EE61EF71E081F9040229C900109
:10438000339CA001449CB001559C210F208BA31E9F
:10439000A18AB41EB28AC51EC38AD61ED48AE71E5D
:1043A000E58AF01CF68A011D078B90401127332700
:1043B000399CA00DB11D311F489CA00DB11D311FAE
:1043C000579CA00DB11D311F412F499CB00D311DCF
:1043D000411F589CB00D311D411F679CB00D311D10
:1043E000411F512F599C300D411D511F689C300DAC
:1043F000411D511F612F699C400D511D611F789C0B
:10440000400D511D611F712F799C500D611D711F51
:104410008827899C600D711D811FAA1FBB1F331F38
:10442000441F551F661F771F881F669C9195090EB4
:10443000111E5001779C6001889C7001999CAA0D07
:10444000A08FBB1DB18F3C1D328F4D1D438F5E1D54
:10445000548F6F1D658F701D768F811D878FA8808B
:10446000B980CA80DB80EC80FD800E811F812A1814
:104470003B084C085D086E087F08800A910ABB273C
:10448000AA0B2A263A264A265A266A267A268A26F7
:104490009A26A1952A0E3B1E4B1E5B1E6B1E7B1E91
:1044A0008B1E9B1EAA27239C50016D01249CB00CDF
:1044B000C11C7D01259CC00CD11C349CC00CD11C9E
:1044C000EA1E269CD00CE11C359CD00CE11CFA1E87
:1044D0008D01279CE00CF11C0A1F369CE00CF11C9E
:1044E0000A1F459CE00CF11C0A1F289CF00C011DC2
:1044F0001A1F379CF00C011D1A1F469CF00C011D61
:104500001A1F9D01299C000D111D2A1F389C000DAA
:10451000111D2A1F479C000D111D2A1F569C000DBE
:10452000111D2A1FAA1CBB1CCC1CDD1CEE1CFF1C71
:10453000001F990B229CE001339CA001449CB00118
:10454000559CAD0EB41EC51ED61EE71EF01C011DE7
:104550009A0B399C100D211D3A1F489C100D211DEE
:104560003A1F579C100D211D3A1FAD01499C200D8B
:10457000311D4A1F589C200D311D4A1F679C200D7C
:10458000311D4A1F599C300D411D5A1F689C300D2A
:10459000411D5A1FBD01699C400D511D6A1F789C29
:1045A000400D511D6A1F799C500D611D7A1F88278F
:1045B000899C600D711D8A1F111F221F331F441F0C
:1045C000551F661F771F881F669C9195090E1A1E3E
:1045D0001001779C2001889C3001999C120D231DAD
:1045E000341D451D561D671D701D811D2088318895
:1045F000428853886488758886889788C219A3087A
:10460000B408C508D608E708F80809090008D081E9
:10461000DC1BD087D181DA09D187D281DB09D2872F
:10462000D381DC09D387D481DD09D487D581DE0924
:10463000D587D681DF09D687D781D00BD787210AC6
:10464000320A430A540A650A760A870A980AAA0BAC
:10465000A08CB18CC28CD38CE48CF58C068D178D1C
:10466000000C2A1C3B1C4C1C5D1C6E1C7F1C801EFD
:10467000911E208A318A428A538A648A758A868A80
:10468000978A2227A21FBA2FB595AA0EBB1ECB1E52
:10469000DB1EEB1EFB1E0B1F1B1FA08EB18EC28EDE
:1046A000D38EE48EF58E068F178FDF91CF91DF9139
:1046B000CF91088019802A803B804C805D806E807D
:1046C0007F8088849984AA84BB84CC84DD84EE8432
:1046D000FF840081001A0181100A0281200A0381EF
:1046E000300A0481400A0581500A0681600A078168
:1046F000700A0085800A0185900A0285A00A038558
:10470000B00A0485C00A0585D00A0685E00A078537
:10471000F00A000B18A1010E088A09A0101C198AC2
:104720001AA0211C2A8A2BA0321C3B8A3CA0431CC5
:104730004C8A4DA0541C5D8A5EA0651C6E8A6FA0D9
:10474000761C7F8A78A4871C888E89A4981C998EF1
:104750009AA4A91CAA8EABA4BA1CBB8EBCA4CB1C69
:10476000CC8ECDA4DC1CDD8EDEA4ED1CEE8EEFA481
:10477000FE1CFF8E2227221F06950089100B01893F
:10478000000A0289100A0389200A0489300A05896F
:10479000400A0689500A0789600A008D700A018D57
:1047A000800A028D900A038DA00A048DB00A058D3F
:1047B000C00A068DD00A078DE00AAA0BBB0B26950E
:1047C00038A9131F18A319A9011E09A20AA8101CB1
:1047D0001AA21BA8211C2BA22CA8321C3CA23DA86B
:1047E000431C4DA24EA8541C5EA25FA8651C6FA27C
:1047F00068AC761C78A679AC871C89A68AAC981C14
:104800009AA69BACA91CABA6ACACBA1CBCA6BDAC12
:10481000CB1CCDA6CEACDC1CDEA6DFACED1CEFA61F
:10482000A21FB21F3A0F1B1F0B1E1B1E2B1E3B1E6F
:104830004B1E5B1E6B1E7B1E8B1E9B1EAB1EBB1E70
:10484000CB1EDB1E38AB19AB0AAA1BAA2CAA3DAAA9
:104850004EAA5FAA68AE79AE8AAE9BAEACAEBDAED4
:10486000CEAEDFAE1124DF91CF911F910F91FF905B
:10487000EF90DF90CF90BF90AF909F908F907F9000
:104880006F905F904F903F902F900895A0EAB0E016
:10489000ECE4F4E20C9490248FEF8DB91EB88E01F5
:1048A0000F571F4F90E2D801E92F1D92EA95E9F7C3
:1048B0008AEAD8018C93FE01EF5BFF4FDF01892F5D
:1048C0001D928A95E9F79F01205E3F4FD901892FFC
:1048D0001D928A95E9F7AE014F5F5F4FDA01892F8C
:1048E0001D928A95E9F720543109D9011D929A95B4
:1048F000E9F78BEA878F88E087AFBF01C8010E9484
:104900002C08FFCF2F923F924F925F926F927F922F
:104910008F929F92AF92BF92CF92DF92EF92FF92CF
:104920000F931F93CF93DF93CDB7DEB7CA1BDB0B7B
:104930000FB6F894DEBF0FBECDBF19942A88398810
:1049400048885F846E847D848C849B84AA84B98427
:10495000C884DF80EE80FD800C811B81AA81B98133
:10496000CE0FD11D0FB6F894DEBF0FBECDBFED0147
:064970000895F894FFCF4A
:10497600A3785913CA4DEB75ABD841414D0A700067
:1049860098E879777940C78C73FE6F2BEE6C0352EB
:00000001FF
